:1000000019C028C027C026C025C024C023C022C0D4
:1000100021C020C01FC01EC01DC01CC01BC01AC0F4
:1000200019C019C017C016C015C014C013C012C023
:1000300011C010C011241FBECFEFCDBFDFE3DEBF64
:100040002FE3A0E8BFE301C01D92A238B207E1F799
:100050001BD054C0D5CF1F920F920FB60F92112410
:100060008F939F938091100690E0689413F8959574
:1000700087951694E1F78093813F9F918F910F9020
:100080000FBE0F901F9018951092610080B18C6C7C
:1000900080B98091000687608093000680910206F7
:1000A00080658093020680910A06816080930A062B
:1000B000789481E0809306068091080681608093A1
:1000C00008068091813F80FF11C00A9A8091813F8C
:1000D00081FF0EC00B9A8091813F82FF0BC00E9A68
:1000E0008091813F83FF08C00F9AEBCF0A98EECF33
:1000F0000B98F1CF0E98F4CF0F98E3CFF894FFCF81
:00000001FF
